{
  "contractName": "Voting",
  "abi": [
    {
      "inputs": [
        {
          "internalType": "uint256",
          "name": "",
          "type": "uint256"
        }
      ],
      "name": "candidates",
      "outputs": [
        {
          "internalType": "string",
          "name": "name",
          "type": "string"
        },
        {
          "internalType": "string",
          "name": "cnic",
          "type": "string"
        },
        {
          "internalType": "string",
          "name": "constituency",
          "type": "string"
        },
        {
          "internalType": "address",
          "name": "candidateAccount",
          "type": "address"
        }
      ],
      "stateMutability": "view",
      "type": "function",
      "constant": true
    },
    {
      "inputs": [
        {
          "internalType": "string",
          "name": "_cnic",
          "type": "string"
        },
        {
          "internalType": "string",
          "name": "_name",
          "type": "string"
        },
        {
          "internalType": "string",
          "name": "_constituency",
          "type": "string"
        },
        {
          "internalType": "address",
          "name": "_candidateAccount",
          "type": "address"
        }
      ],
      "name": "addCandidate",
      "outputs": [],
      "stateMutability": "nonpayable",
      "type": "function"
    },
    {
      "inputs": [
        {
          "internalType": "string",
          "name": "_cnic",
          "type": "string"
        },
        {
          "internalType": "string",
          "name": "_name",
          "type": "string"
        },
        {
          "internalType": "string",
          "name": "_constituency",
          "type": "string"
        }
      ],
      "name": "updateCandidate",
      "outputs": [],
      "stateMutability": "nonpayable",
      "type": "function"
    },
    {
      "inputs": [
        {
          "internalType": "string",
          "name": "_cnic",
          "type": "string"
        }
      ],
      "name": "deleteCandidate",
      "outputs": [],
      "stateMutability": "nonpayable",
      "type": "function"
    },
    {
      "inputs": [],
      "name": "getCandidatesCount",
      "outputs": [
        {
          "internalType": "uint256",
          "name": "",
          "type": "uint256"
        }
      ],
      "stateMutability": "view",
      "type": "function",
      "constant": true
    },
    {
      "inputs": [
        {
          "internalType": "uint256",
          "name": "index",
          "type": "uint256"
        }
      ],
      "name": "getCandidate",
      "outputs": [
        {
          "internalType": "string",
          "name": "",
          "type": "string"
        },
        {
          "internalType": "string",
          "name": "",
          "type": "string"
        },
        {
          "internalType": "string",
          "name": "",
          "type": "string"
        },
        {
          "internalType": "address",
          "name": "",
          "type": "address"
        }
      ],
      "stateMutability": "view",
      "type": "function",
      "constant": true
    }
  ],
  "bytecode": "0x608060405234801561001057600080fd5b506117bb806100206000396000f3fe608060405234801561001057600080fd5b50600436106100625760003560e01c806308f10fe6146100675780633477ee2e1461008357806335b8e820146100b657806388feb516146100e9578063bb9aa28f14610105578063e405bf9014610123575b600080fd5b610081600480360381019061007c9190611009565b61013f565b005b61009d600480360381019061009891906110e6565b610247565b6040516100ad94939291906111dc565b60405180910390f35b6100d060048036038101906100cb91906110e6565b61043f565b6040516100e094939291906111dc565b60405180910390f35b61010360048036038101906100fe9190611236565b6106ec565b005b61010d610a69565b60405161011a919061128e565b60405180910390f35b61013d600480360381019061013891906112d5565b610a75565b005b60028360405161014f91906113cc565b908152602001604051809103902060009054906101000a900460ff166101aa576040517f08c379a00000000000000000000000000000000000000000000000000000000081526004016101a190611455565b60405180910390fd5b60006001846040516101bc91906113cc565b908152602001604051809103902054905082600082815481106101e2576101e1611475565b5b90600052602060002090600402016000019080519060200190610206929190610d3f565b50816000828154811061021c5761021b611475565b5b90600052602060002090600402016002019080519060200190610240929190610d3f565b5050505050565b6000818154811061025757600080fd5b906000526020600020906004020160009150905080600001805461027a906114d3565b80601f01602080910402602001604051908101604052809291908181526020018280546102a6906114d3565b80156102f35780601f106102c8576101008083540402835291602001916102f3565b820191906000526020600020905b8154815290600101906020018083116102d657829003601f168201915b505050505090806001018054610308906114d3565b80601f0160208091040260200160405190810160405280929190818152602001828054610334906114d3565b80156103815780601f1061035657610100808354040283529160200191610381565b820191906000526020600020905b81548152906001019060200180831161036457829003601f168201915b505050505090806002018054610396906114d3565b80601f01602080910402602001604051908101604052809291908181526020018280546103c2906114d3565b801561040f5780601f106103e45761010080835404028352916020019161040f565b820191906000526020600020905b8154815290600101906020018083116103f257829003601f168201915b5050505050908060030160009054906101000a900473ffffffffffffffffffffffffffffffffffffffff16905084565b606080606060008080549050851061048c576040517f08c379a000000000000000000000000000000000000000000000000000000000815260040161048390611550565b60405180910390fd5b60008086815481106104a1576104a0611475565b5b90600052602060002090600402016040518060800160405290816000820180546104ca906114d3565b80601f01602080910402602001604051908101604052809291908181526020018280546104f6906114d3565b80156105435780601f1061051857610100808354040283529160200191610543565b820191906000526020600020905b81548152906001019060200180831161052657829003601f168201915b5050505050815260200160018201805461055c906114d3565b80601f0160208091040260200160405190810160405280929190818152602001828054610588906114d3565b80156105d55780601f106105aa576101008083540402835291602001916105d5565b820191906000526020600020905b8154815290600101906020018083116105b857829003601f168201915b505050505081526020016002820180546105ee906114d3565b80601f016020809104026020016040519081016040528092919081815260200182805461061a906114d3565b80156106675780601f1061063c57610100808354040283529160200191610667565b820191906000526020600020905b81548152906001019060200180831161064a57829003601f168201915b505050505081526020016003820160009054906101000a900473ffffffffffffffffffffffffffffffffffffffff1673ffffffffffffffffffffffffffffffffffffffff1673ffffffffffffffffffffffffffffffffffffffff1681525050905080600001518160200151826040015183606001519450945094509450509193509193565b6002816040516106fc91906113cc565b908152602001604051809103902060009054906101000a900460ff16610757576040517f08c379a000000000000000000000000000000000000000000000000000000000815260040161074e90611455565b60405180910390fd5b600060018260405161076991906113cc565b90815260200160405180910390205490506000600160008054905061078e919061159f565b905060006002846040516107a291906113cc565b908152602001604051809103902060006101000a81548160ff0219169083151502179055506000600360008085815481106107e0576107df611475565b5b906000526020600020906004020160030160009054906101000a900473ffffffffffffffffffffffffffffffffffffffff1673ffffffffffffffffffffffffffffffffffffffff1673ffffffffffffffffffffffffffffffffffffffff16815260200190815260200160002060006101000a81548160ff02191690831515021790555060018360405161087391906113cc565b9081526020016040518091039020600090558082146109e257600081815481106108a05761089f611475565b5b9060005260206000209060040201600083815481106108c2576108c1611475565b5b906000526020600020906004020160008201816000019080546108e4906114d3565b6108ef929190610dc5565b506001820181600101908054610904906114d3565b61090f929190610dc5565b506002820181600201908054610924906114d3565b61092f929190610dc5565b506003820160009054906101000a900473ffffffffffffffffffffffffffffffffffffffff168160030160006101000a81548173ffffffffffffffffffffffffffffffffffffffff021916908373ffffffffffffffffffffffffffffffffffffffff160217905550905050816001600083815481106109b1576109b0611475565b5b90600052602060002090600402016001016040516109cf9190611667565b9081526020016040518091039020819055505b60008054806109f4576109f361167e565b5b600190038181906000526020600020906004020160008082016000610a199190610e52565b600182016000610a299190610e52565b600282016000610a399190610e52565b6003820160006101000a81549073ffffffffffffffffffffffffffffffffffffffff021916905550509055505050565b60008080549050905090565b600284604051610a8591906113cc565b908152602001604051809103902060009054906101000a900460ff1615610ae1576040517f08c379a0000000000000000000000000000000000000000000000000000000008152600401610ad8906116f9565b60405180910390fd5b600360008273ffffffffffffffffffffffffffffffffffffffff1673ffffffffffffffffffffffffffffffffffffffff16815260200190815260200160002060009054906101000a900460ff1615610b6e576040517f08c379a0000000000000000000000000000000000000000000000000000000008152600401610b6590611765565b60405180910390fd5b600060405180608001604052808581526020018681526020018481526020018373ffffffffffffffffffffffffffffffffffffffff1681525090806001815401808255809150506001900390600052602060002090600402016000909190919091506000820151816000019080519060200190610bec929190610d3f565b506020820151816001019080519060200190610c09929190610d3f565b506040820151816002019080519060200190610c26929190610d3f565b5060608201518160030160006101000a81548173ffffffffffffffffffffffffffffffffffffffff021916908373ffffffffffffffffffffffffffffffffffffffff160217905550505060006001600080549050610c84919061159f565b905080600186604051610c9791906113cc565b9081526020016040518091039020819055506001600286604051610cbb91906113cc565b908152602001604051809103902060006101000a81548160ff0219169083151502179055506001600360008473ffffffffffffffffffffffffffffffffffffffff1673ffffffffffffffffffffffffffffffffffffffff16815260200190815260200160002060006101000a81548160ff0219169083151502179055505050505050565b828054610d4b906114d3565b90600052602060002090601f016020900481019282610d6d5760008555610db4565b82601f10610d8657805160ff1916838001178555610db4565b82800160010185558215610db4579182015b82811115610db3578251825591602001919060010190610d98565b5b509050610dc19190610e92565b5090565b828054610dd1906114d3565b90600052602060002090601f016020900481019282610df35760008555610e41565b82601f10610e045780548555610e41565b82800160010185558215610e4157600052602060002091601f016020900482015b82811115610e40578254825591600101919060010190610e25565b5b509050610e4e9190610e92565b5090565b508054610e5e906114d3565b6000825580601f10610e705750610e8f565b601f016020900490600052602060002090810190610e8e9190610e92565b5b50565b5b80821115610eab576000816000905550600101610e93565b5090565b6000604051905090565b600080fd5b600080fd5b600080fd5b600080fd5b6000601f19601f8301169050919050565b7f4e487b7100000000000000000000000000000000000000000000000000000000600052604160045260246000fd5b610f1682610ecd565b810181811067ffffffffffffffff82111715610f3557610f34610ede565b5b80604052505050565b6000610f48610eaf565b9050610f548282610f0d565b919050565b600067ffffffffffffffff821115610f7457610f73610ede565b5b610f7d82610ecd565b9050602081019050919050565b82818337600083830152505050565b6000610fac610fa784610f59565b610f3e565b905082815260208101848484011115610fc857610fc7610ec8565b5b610fd3848285610f8a565b509392505050565b600082601f830112610ff057610fef610ec3565b5b8135611000848260208601610f99565b91505092915050565b60008060006060848603121561102257611021610eb9565b5b600084013567ffffffffffffffff8111156110405761103f610ebe565b5b61104c86828701610fdb565b935050602084013567ffffffffffffffff81111561106d5761106c610ebe565b5b61107986828701610fdb565b925050604084013567ffffffffffffffff81111561109a57611099610ebe565b5b6110a686828701610fdb565b9150509250925092565b6000819050919050565b6110c3816110b0565b81146110ce57600080fd5b50565b6000813590506110e0816110ba565b92915050565b6000602082840312156110fc576110fb610eb9565b5b600061110a848285016110d1565b91505092915050565b600081519050919050565b600082825260208201905092915050565b60005b8381101561114d578082015181840152602081019050611132565b8381111561115c576000848401525b50505050565b600061116d82611113565b611177818561111e565b935061118781856020860161112f565b61119081610ecd565b840191505092915050565b600073ffffffffffffffffffffffffffffffffffffffff82169050919050565b60006111c68261119b565b9050919050565b6111d6816111bb565b82525050565b600060808201905081810360008301526111f68187611162565b9050818103602083015261120a8186611162565b9050818103604083015261121e8185611162565b905061122d60608301846111cd565b95945050505050565b60006020828403121561124c5761124b610eb9565b5b600082013567ffffffffffffffff81111561126a57611269610ebe565b5b61127684828501610fdb565b91505092915050565b611288816110b0565b82525050565b60006020820190506112a3600083018461127f565b92915050565b6112b2816111bb565b81146112bd57600080fd5b50565b6000813590506112cf816112a9565b92915050565b600080600080608085870312156112ef576112ee610eb9565b5b600085013567ffffffffffffffff81111561130d5761130c610ebe565b5b61131987828801610fdb565b945050602085013567ffffffffffffffff81111561133a57611339610ebe565b5b61134687828801610fdb565b935050604085013567ffffffffffffffff81111561136757611366610ebe565b5b61137387828801610fdb565b9250506060611384878288016112c0565b91505092959194509250565b600081905092915050565b60006113a682611113565b6113b08185611390565b93506113c081856020860161112f565b80840191505092915050565b60006113d8828461139b565b915081905092915050565b7f43616e6469646174652077697468207468697320434e494320646f6573206e6f60008201527f742065786973742e000000000000000000000000000000000000000000000000602082015250565b600061143f60288361111e565b915061144a826113e3565b604082019050919050565b6000602082019050818103600083015261146e81611432565b9050919050565b7f4e487b7100000000000000000000000000000000000000000000000000000000600052603260045260246000fd5b7f4e487b7100000000000000000000000000000000000000000000000000000000600052602260045260246000fd5b600060028204905060018216806114eb57607f821691505b6020821081036114fe576114fd6114a4565b5b50919050565b7f496e646578206f7574206f6620626f756e64732e000000000000000000000000600082015250565b600061153a60148361111e565b915061154582611504565b602082019050919050565b600060208201905081810360008301526115698161152d565b9050919050565b7f4e487b7100000000000000000000000000000000000000000000000000000000600052601160045260246000fd5b60006115aa826110b0565b91506115b5836110b0565b9250828210156115c8576115c7611570565b5b828203905092915050565b60008190508160005260206000209050919050565b600081546115f5816114d3565b6115ff8186611390565b9450600182166000811461161a576001811461162b5761165e565b60ff1983168652818601935061165e565b611634856115d3565b60005b8381101561165657815481890152600182019150602081019050611637565b838801955050505b50505092915050565b600061167382846115e8565b915081905092915050565b7f4e487b7100000000000000000000000000000000000000000000000000000000600052603160045260246000fd5b7f434e494320616c7265616479206578697374732e000000000000000000000000600082015250565b60006116e360148361111e565b91506116ee826116ad565b602082019050919050565b60006020820190508181036000830152611712816116d6565b9050919050565b7f4163636f756e7420616c7265616479206578697374732e000000000000000000600082015250565b600061174f60178361111e565b915061175a82611719565b602082019050919050565b6000602082019050818103600083015261177e81611742565b905091905056fea2646970667358221220631d234901f1f0eeef01b5cafcd4e9f01da52a63eaa2f7bab1d6ef9e22a859b864736f6c634300080e0033",
  "immutableReferences": {},
  "source": "// SPDX-License-Identifier: MIT\r\npragma solidity ^0.8.14;\r\n\r\ncontract Voting {\r\n    struct Candidate {\r\n        string name;\r\n        string cnic;\r\n        string constituency;\r\n        address candidateAccount;\r\n    }\r\n\r\n    Candidate[] public candidates;\r\n    mapping(string => uint) private cnicToIndex;\r\n    mapping(string => bool) private cnicExists;\r\n    mapping(address => bool) private accountExists;\r\n\r\n    function addCandidate(\r\n        string memory _cnic,\r\n        string memory _name,\r\n        string memory _constituency,\r\n        address _candidateAccount\r\n    ) public {\r\n        require(!cnicExists[_cnic], \"CNIC already exists.\");\r\n        require(!accountExists[_candidateAccount], \"Account already exists.\");\r\n\r\n        candidates.push(\r\n            Candidate({\r\n                name: _name,\r\n                cnic: _cnic,\r\n                constituency: _constituency,\r\n                candidateAccount: _candidateAccount\r\n            })\r\n        );\r\n\r\n        uint index = candidates.length - 1;\r\n        cnicToIndex[_cnic] = index;\r\n        cnicExists[_cnic] = true;\r\n        accountExists[_candidateAccount] = true;\r\n    }\r\n\r\n    function updateCandidate(\r\n        string memory _cnic,\r\n        string memory _name,\r\n        string memory _constituency\r\n    ) public {\r\n        require(cnicExists[_cnic], \"Candidate with this CNIC does not exist.\");\r\n\r\n        uint index = cnicToIndex[_cnic];\r\n        candidates[index].name = _name;\r\n        candidates[index].constituency = _constituency;\r\n    }\r\n\r\n    function deleteCandidate(string memory _cnic) public {\r\n        require(cnicExists[_cnic], \"Candidate with this CNIC does not exist.\");\r\n\r\n        uint indexToDelete = cnicToIndex[_cnic];\r\n        uint lastIndex = candidates.length - 1;\r\n\r\n        // Update mappings for the candidate to delete\r\n        cnicExists[_cnic] = false;\r\n        accountExists[candidates[indexToDelete].candidateAccount] = false;\r\n        delete cnicToIndex[_cnic];\r\n\r\n        if (indexToDelete != lastIndex) {\r\n            // Move the last candidate to the position of the candidate to delete\r\n            candidates[indexToDelete] = candidates[lastIndex];\r\n            cnicToIndex[candidates[lastIndex].cnic] = indexToDelete;\r\n        }\r\n\r\n        // Remove the last element\r\n        candidates.pop();\r\n    }\r\n    function getCandidatesCount() public view returns (uint) {\r\n        return candidates.length;\r\n    }\r\n\r\n    function getCandidate(\r\n        uint index\r\n    )\r\n        public\r\n        view\r\n        returns (string memory, string memory, string memory, address)\r\n    {\r\n        require(index < candidates.length, \"Index out of bounds.\");\r\n\r\n        Candidate memory candidate = candidates[index];\r\n        return (\r\n            candidate.name,\r\n            candidate.cnic,\r\n            candidate.constituency,\r\n            candidate.candidateAccount\r\n        );\r\n    }\r\n}\r\n",
  "sourcePath": "D:\\data\\projects\\blockchain project\\with_truffle_ganeche\\voting app code\\voting-app\\contracts\\Voting.sol",
  "compiler": {
    "name": "solc",
    "version": "0.8.14+commit.80d49f37.Emscripten.clang"
  },
  "schemaVersion": "3.4.16",
  "updatedAt": "2024-07-10T11:55:39.762Z",
  "networkType": "ethereum",
  "devdoc": {
    "kind": "dev",
    "methods": {},
    "version": 1
  },
  "userdoc": {
    "kind": "user",
    "methods": {},
    "version": 1
  }
}